:100000000C9434000C9451000C9451000C94510049
:100010000C9451000C9451000C9451000C9451001C
:100020000C9451000C9451000C9451000C9451000C
:100030000C9451000C9451000C9451000C945100FC
:100040000C9451000C9451000C940F010C9451002D
:100050000C9451000C9451000C9451000C945100DC
:100060000C9451000C94510011241FBECFEFD8E026
:10007000DEBFCDBF11E0A0E0B1E0E0ECF3E002C0F4
:1000800005900D92AE35B107D9F711E0AEE5B1E0BC
:1000900001C01D92A13AB107E1F70E9453000C94F0
:1000A000DE010C9400006F927F928F929F92AF922C
:1000B000BF92CF92DF92EF92FF920F931F93DF9345
:1000C000CF93CDB7DEB7C058D0400FB6F894DEBF9F
:1000D0000FBECDBF80E895E20E943B0130E9A32E20
:1000E00031E0B32E7E010894E11CF11C21E4C22E04
:1000F000D12CCC0EDD1E93E5692E91E0792E88E59A
:10010000882E81E0982E80E091E00E9466010E9496
:100110005B01892BE1F388EE93E0F5013197F1F76C
:100120000197D9F7C7010E949E01082FC7010E94BD
:10013000660189E191E00E946601F701E00FF11D7F
:1001400010828CE191E00E9466010E945B01892B84
:10015000E1F388EE93E0F5013197F1F70197D9F7D4
:10016000C6010E949E01182FC6010E94660189E106
:1001700091E00E946601212F30E0F601E20FF31FAB
:100180001082F30101900020E9F73197E355F14027
:10019000802F90E08E179F0791F5F40101900020C9
:1001A000E9F73197E855F1402E173F0741F5F70180
:1001B00001900020E9F7AF01415050404E195F090E
:1001C00061E020E030E016C0F701E20FF31FD90133
:1001D000AD5ABE4F90818C91981749F4F601E20F09
:1001E000F31FD901A85ABE4F90818C91981360E0FB
:1001F0002F5F3F4F2417350738F3662319F48EE23B
:1002000091E006C083E491E00E94660183E591E0FD
:100210000E94660189E191E00E94660174CF1F92FD
:100220000F920FB60F9211248F939F93EF93FF932A
:10023000809160019091C600E82FF0E0EF59FE4FE9
:1002400090838F5F80936001809160018F738093B2
:10025000600180915E01803428F480915E018F5F9F
:1002600080935E01FF91EF919F918F910F900FBE50
:100270000F901F9018959B01AC0180E28093C00005
:1002800088E98093C10086E08093C20084E0220F59
:10029000331F441F551F8A95D1F760E074E284EF45
:1002A00090E00E94BC01215030403093C500209363
:1002B000C4007894089580915E010895982F8091EC
:1002C000C00085FFFCCF9093C6000895FC0107C0D5
:1002D0008091C00085FFFCCF9093C600319690813D
:1002E0009923B1F708959C01F9012F5F3F4F949135
:1002F000992339F08091C00085FFFCCF9093C60010
:10030000F3CF089580915E01882311F4EFEF14C0BC
:1003100080915F01E82FF0E0EF59FE4FE0818F5FA1
:1003200080935F0180915F018F7380935F01809163
:100330005E01815080935E018E2F0895EF92FF92AF
:100340001F93CF93DF937C0110E006C00E948201CF
:10035000CE0DDF1D88831F5F80915E01C12FD0E02D
:100360008823A1F7CE0DDF1D1882812FDF91CF9159
:100370001F91FF90EF900895A1E21A2EAA1BBB1BBC
:10038000FD010DC0AA1FBB1FEE1FFF1FA217B30761
:10039000E407F50720F0A21BB30BE40BF50B661F77
:1003A000771F881F991F1A9469F76095709580953B
:1003B00090959B01AC01BD01CF010895F894FFCF4A
:1003C000556E6573697465206B6F7269736E6963CE
:1003D0006B6F20696D653A20000D0A00556E6573DC
:1003E000697465206C6F7A696E6B753A20004C6F8A
:1003F000676F76616E6A65206E6575737065736E82
:100400006F2E00446F62726F646F73616F2F6C6147
:0E0410002C20007465737400746573743100E1
:00000001FF
